{
  "_format": "hh-sol-artifact-1",
  "contractName": "MyNFT",
  "sourceName": "contracts/MyNFT.sol",
  "abi": [
    {
      "inputs": [],
      "stateMutability": "nonpayable",
      "type": "constructor"
    },
    {
      "anonymous": false,
      "inputs": [
        {
          "indexed": true,
          "internalType": "address",
          "name": "owner",
          "type": "address"
        },
        {
          "indexed": true,
          "internalType": "address",
          "name": "approved",
          "type": "address"
        },
        {
          "indexed": true,
          "internalType": "uint256",
          "name": "tokenId",
          "type": "uint256"
        }
      ],
      "name": "Approval",
      "type": "event"
    },
    {
      "anonymous": false,
      "inputs": [
        {
          "indexed": true,
          "internalType": "address",
          "name": "owner",
          "type": "address"
        },
        {
          "indexed": true,
          "internalType": "address",
          "name": "operator",
          "type": "address"
        },
        {
          "indexed": false,
          "internalType": "bool",
          "name": "approved",
          "type": "bool"
        }
      ],
      "name": "ApprovalForAll",
      "type": "event"
    },
    {
      "anonymous": false,
      "inputs": [
        {
          "indexed": true,
          "internalType": "address",
          "name": "previousOwner",
          "type": "address"
        },
        {
          "indexed": true,
          "internalType": "address",
          "name": "newOwner",
          "type": "address"
        }
      ],
      "name": "OwnershipTransferred",
      "type": "event"
    },
    {
      "anonymous": false,
      "inputs": [
        {
          "indexed": true,
          "internalType": "address",
          "name": "from",
          "type": "address"
        },
        {
          "indexed": true,
          "internalType": "address",
          "name": "to",
          "type": "address"
        },
        {
          "indexed": true,
          "internalType": "uint256",
          "name": "tokenId",
          "type": "uint256"
        }
      ],
      "name": "Transfer",
      "type": "event"
    },
    {
      "inputs": [
        {
          "internalType": "address",
          "name": "to",
          "type": "address"
        },
        {
          "internalType": "uint256",
          "name": "tokenId",
          "type": "uint256"
        }
      ],
      "name": "approve",
      "outputs": [],
      "stateMutability": "nonpayable",
      "type": "function"
    },
    {
      "inputs": [
        {
          "internalType": "address",
          "name": "owner",
          "type": "address"
        }
      ],
      "name": "balanceOf",
      "outputs": [
        {
          "internalType": "uint256",
          "name": "",
          "type": "uint256"
        }
      ],
      "stateMutability": "view",
      "type": "function"
    },
    {
      "inputs": [
        {
          "internalType": "uint256",
          "name": "tokenId",
          "type": "uint256"
        }
      ],
      "name": "getApproved",
      "outputs": [
        {
          "internalType": "address",
          "name": "",
          "type": "address"
        }
      ],
      "stateMutability": "view",
      "type": "function"
    },
    {
      "inputs": [
        {
          "internalType": "address",
          "name": "owner",
          "type": "address"
        },
        {
          "internalType": "address",
          "name": "operator",
          "type": "address"
        }
      ],
      "name": "isApprovedForAll",
      "outputs": [
        {
          "internalType": "bool",
          "name": "",
          "type": "bool"
        }
      ],
      "stateMutability": "view",
      "type": "function"
    },
    {
      "inputs": [
        {
          "internalType": "address",
          "name": "to",
          "type": "address"
        },
        {
          "internalType": "string",
          "name": "cid",
          "type": "string"
        }
      ],
      "name": "mint",
      "outputs": [],
      "stateMutability": "nonpayable",
      "type": "function"
    },
    {
      "inputs": [],
      "name": "name",
      "outputs": [
        {
          "internalType": "string",
          "name": "",
          "type": "string"
        }
      ],
      "stateMutability": "view",
      "type": "function"
    },
    {
      "inputs": [],
      "name": "owner",
      "outputs": [
        {
          "internalType": "address",
          "name": "",
          "type": "address"
        }
      ],
      "stateMutability": "view",
      "type": "function"
    },
    {
      "inputs": [
        {
          "internalType": "uint256",
          "name": "tokenId",
          "type": "uint256"
        }
      ],
      "name": "ownerOf",
      "outputs": [
        {
          "internalType": "address",
          "name": "",
          "type": "address"
        }
      ],
      "stateMutability": "view",
      "type": "function"
    },
    {
      "inputs": [
        {
          "internalType": "uint256",
          "name": "tokenId",
          "type": "uint256"
        }
      ],
      "name": "promptDescription",
      "outputs": [
        {
          "internalType": "string",
          "name": "",
          "type": "string"
        }
      ],
      "stateMutability": "view",
      "type": "function"
    },
    {
      "inputs": [],
      "name": "renounceOwnership",
      "outputs": [],
      "stateMutability": "nonpayable",
      "type": "function"
    },
    {
      "inputs": [
        {
          "internalType": "address",
          "name": "from",
          "type": "address"
        },
        {
          "internalType": "address",
          "name": "to",
          "type": "address"
        },
        {
          "internalType": "uint256",
          "name": "tokenId",
          "type": "uint256"
        }
      ],
      "name": "safeTransferFrom",
      "outputs": [],
      "stateMutability": "nonpayable",
      "type": "function"
    },
    {
      "inputs": [
        {
          "internalType": "address",
          "name": "from",
          "type": "address"
        },
        {
          "internalType": "address",
          "name": "to",
          "type": "address"
        },
        {
          "internalType": "uint256",
          "name": "tokenId",
          "type": "uint256"
        },
        {
          "internalType": "bytes",
          "name": "data",
          "type": "bytes"
        }
      ],
      "name": "safeTransferFrom",
      "outputs": [],
      "stateMutability": "nonpayable",
      "type": "function"
    },
    {
      "inputs": [
        {
          "internalType": "address",
          "name": "operator",
          "type": "address"
        },
        {
          "internalType": "bool",
          "name": "approved",
          "type": "bool"
        }
      ],
      "name": "setApprovalForAll",
      "outputs": [],
      "stateMutability": "nonpayable",
      "type": "function"
    },
    {
      "inputs": [
        {
          "internalType": "uint256",
          "name": "tokenId",
          "type": "uint256"
        },
        {
          "internalType": "string",
          "name": "prompt",
          "type": "string"
        }
      ],
      "name": "setPrompt",
      "outputs": [],
      "stateMutability": "nonpayable",
      "type": "function"
    },
    {
      "inputs": [
        {
          "internalType": "bytes4",
          "name": "interfaceId",
          "type": "bytes4"
        }
      ],
      "name": "supportsInterface",
      "outputs": [
        {
          "internalType": "bool",
          "name": "",
          "type": "bool"
        }
      ],
      "stateMutability": "view",
      "type": "function"
    },
    {
      "inputs": [],
      "name": "symbol",
      "outputs": [
        {
          "internalType": "string",
          "name": "",
          "type": "string"
        }
      ],
      "stateMutability": "view",
      "type": "function"
    },
    {
      "inputs": [
        {
          "internalType": "uint256",
          "name": "index",
          "type": "uint256"
        }
      ],
      "name": "tokenByIndex",
      "outputs": [
        {
          "internalType": "uint256",
          "name": "",
          "type": "uint256"
        }
      ],
      "stateMutability": "view",
      "type": "function"
    },
    {
      "inputs": [
        {
          "internalType": "address",
          "name": "owner",
          "type": "address"
        },
        {
          "internalType": "uint256",
          "name": "index",
          "type": "uint256"
        }
      ],
      "name": "tokenOfOwnerByIndex",
      "outputs": [
        {
          "internalType": "uint256",
          "name": "",
          "type": "uint256"
        }
      ],
      "stateMutability": "view",
      "type": "function"
    },
    {
      "inputs": [
        {
          "internalType": "uint256",
          "name": "tokenId",
          "type": "uint256"
        }
      ],
      "name": "tokenURI",
      "outputs": [
        {
          "internalType": "string",
          "name": "",
          "type": "string"
        }
      ],
      "stateMutability": "view",
      "type": "function"
    },
    {
      "inputs": [],
      "name": "totalSupply",
      "outputs": [
        {
          "internalType": "uint256",
          "name": "",
          "type": "uint256"
        }
      ],
      "stateMutability": "view",
      "type": "function"
    },
    {
      "inputs": [
        {
          "internalType": "address",
          "name": "from",
          "type": "address"
        },
        {
          "internalType": "address",
          "name": "to",
          "type": "address"
        },
        {
          "internalType": "uint256",
          "name": "tokenId",
          "type": "uint256"
        }
      ],
      "name": "transferFrom",
      "outputs": [],
      "stateMutability": "nonpayable",
      "type": "function"
    },
    {
      "inputs": [
        {
          "internalType": "address",
          "name": "newOwner",
          "type": "address"
        }
      ],
      "name": "transferOwnership",
      "outputs": [],
      "stateMutability": "nonpayable",
      "type": "function"
    }
  ],
  "bytecode": "0x60806040523480156200001157600080fd5b506040518060400160405280600881526020017f4e465456657273650000000000000000000000000000000000000000000000008152506040518060400160405280600481526020017f4e4654730000000000000000000000000000000000000000000000000000000081525081600090816200008f919062000412565b508060019081620000a1919062000412565b505050620000c4620000b8620000ca60201b60201c565b620000d260201b60201c565b620004f9565b600033905090565b6000600a60009054906101000a900473ffffffffffffffffffffffffffffffffffffffff16905081600a60006101000a81548173ffffffffffffffffffffffffffffffffffffffff021916908373ffffffffffffffffffffffffffffffffffffffff1602179055508173ffffffffffffffffffffffffffffffffffffffff168173ffffffffffffffffffffffffffffffffffffffff167f8be0079c531659141344cd1fd0a4f28419497f9722a3daafe3b4186f6b6457e060405160405180910390a35050565b600081519050919050565b7f4e487b7100000000000000000000000000000000000000000000000000000000600052604160045260246000fd5b7f4e487b7100000000000000000000000000000000000000000000000000000000600052602260045260246000fd5b600060028204905060018216806200021a57607f821691505b60208210810362000230576200022f620001d2565b5b50919050565b60008190508160005260206000209050919050565b60006020601f8301049050919050565b600082821b905092915050565b6000600883026200029a7fffffffffffffffffffffffffffffffffffffffffffffffffffffffffffffffff826200025b565b620002a686836200025b565b95508019841693508086168417925050509392505050565b6000819050919050565b6000819050919050565b6000620002f3620002ed620002e784620002be565b620002c8565b620002be565b9050919050565b6000819050919050565b6200030f83620002d2565b620003276200031e82620002fa565b84845462000268565b825550505050565b600090565b6200033e6200032f565b6200034b81848462000304565b505050565b5b8181101562000373576200036760008262000334565b60018101905062000351565b5050565b601f821115620003c2576200038c8162000236565b62000397846200024b565b81016020851015620003a7578190505b620003bf620003b6856200024b565b83018262000350565b50505b505050565b600082821c905092915050565b6000620003e760001984600802620003c7565b1980831691505092915050565b6000620004028383620003d4565b9150826002028217905092915050565b6200041d8262000198565b67ffffffffffffffff811115620004395762000438620001a3565b5b62000445825462000201565b6200045282828562000377565b600060209050601f8311600181146200048a576000841562000475578287015190505b620004818582620003f4565b865550620004f1565b601f1984166200049a8662000236565b60005b82811015620004c4578489015182556001820191506020850194506020810190506200049d565b86831015620004e45784890151620004e0601f891682620003d4565b8355505b6001600288020188555050505b505050505050565b61364a80620005096000396000f3fe608060405234801561001057600080fd5b50600436106101425760003560e01c8063715018a6116100b8578063b88d4fde1161007c578063b88d4fde14610389578063c87b56dd146103a5578063d0def521146103d5578063e985e9c5146103f1578063f2fde38b14610421578063f7f7a5a71461043d57610142565b8063715018a6146102f75780638da5cb5b146103015780638e5a86381461031f57806395d89b411461034f578063a22cb4651461036d57610142565b806323b872dd1161010a57806323b872dd146101ff5780632f745c591461021b57806342842e0e1461024b5780634f6ccce7146102675780636352211e1461029757806370a08231146102c757610142565b806301ffc9a71461014757806306fdde0314610177578063081812fc14610195578063095ea7b3146101c557806318160ddd146101e1575b600080fd5b610161600480360381019061015c91906121fa565b610459565b60405161016e9190612242565b60405180910390f35b61017f6104d3565b60405161018c91906122ed565b60405180910390f35b6101af60048036038101906101aa9190612345565b610565565b6040516101bc91906123b3565b60405180910390f35b6101df60048036038101906101da91906123fa565b6105ab565b005b6101e96106c2565b6040516101f69190612449565b60405180910390f35b61021960048036038101906102149190612464565b6106cf565b005b610235600480360381019061023091906123fa565b61072f565b6040516102429190612449565b60405180910390f35b61026560048036038101906102609190612464565b6107d4565b005b610281600480360381019061027c9190612345565b6107f4565b60405161028e9190612449565b60405180910390f35b6102b160048036038101906102ac9190612345565b610865565b6040516102be91906123b3565b60405180910390f35b6102e160048036038101906102dc91906124b7565b6108eb565b6040516102ee9190612449565b60405180910390f35b6102ff6109a2565b005b6103096109b6565b60405161031691906123b3565b60405180910390f35b61033960048036038101906103349190612345565b6109e0565b60405161034691906122ed565b60405180910390f35b610357610a85565b60405161036491906122ed565b60405180910390f35b61038760048036038101906103829190612510565b610b17565b005b6103a3600480360381019061039e9190612685565b610b2d565b005b6103bf60048036038101906103ba9190612345565b610b8f565b6040516103cc91906122ed565b60405180910390f35b6103ef60048036038101906103ea91906127a9565b610bf7565b005b61040b60048036038101906104069190612805565b610c47565b6040516104189190612242565b60405180910390f35b61043b600480360381019061043691906124b7565b610cdb565b005b61045760048036038101906104529190612845565b610d5e565b005b60007f780e9d63000000000000000000000000000000000000000000000000000000007bffffffffffffffffffffffffffffffffffffffffffffffffffffffff1916827bffffffffffffffffffffffffffffffffffffffffffffffffffffffff191614806104cc57506104cb82610d8b565b5b9050919050565b6060600080546104e2906128d0565b80601f016020809104026020016040519081016040528092919081815260200182805461050e906128d0565b801561055b5780601f106105305761010080835404028352916020019161055b565b820191906000526020600020905b81548152906001019060200180831161053e57829003601f168201915b5050505050905090565b600061057082610e6d565b6004600083815260200190815260200160002060009054906101000a900473ffffffffffffffffffffffffffffffffffffffff169050919050565b60006105b682610865565b90508073ffffffffffffffffffffffffffffffffffffffff168373ffffffffffffffffffffffffffffffffffffffff1603610626576040517f08c379a000000000000000000000000000000000000000000000000000000000815260040161061d90612973565b60405180910390fd5b8073ffffffffffffffffffffffffffffffffffffffff16610645610eb8565b73ffffffffffffffffffffffffffffffffffffffff16148061067457506106738161066e610eb8565b610c47565b5b6106b3576040517f08c379a00000000000000000000000000000000000000000000000000000000081526004016106aa90612a05565b60405180910390fd5b6106bd8383610ec0565b505050565b6000600880549050905090565b6106e06106da610eb8565b82610f79565b61071f576040517f08c379a000000000000000000000000000000000000000000000000000000000815260040161071690612a97565b60405180910390fd5b61072a83838361100e565b505050565b600061073a836108eb565b821061077b576040517f08c379a000000000000000000000000000000000000000000000000000000000815260040161077290612b29565b60405180910390fd5b600660008473ffffffffffffffffffffffffffffffffffffffff1673ffffffffffffffffffffffffffffffffffffffff168152602001908152602001600020600083815260200190815260200160002054905092915050565b6107ef83838360405180602001604052806000815250610b2d565b505050565b60006107fe6106c2565b821061083f576040517f08c379a000000000000000000000000000000000000000000000000000000000815260040161083690612bbb565b60405180910390fd5b6008828154811061085357610852612bdb565b5b90600052602060002001549050919050565b60008061087183611307565b9050600073ffffffffffffffffffffffffffffffffffffffff168173ffffffffffffffffffffffffffffffffffffffff16036108e2576040517f08c379a00000000000000000000000000000000000000000000000000000000081526004016108d990612c56565b60405180910390fd5b80915050919050565b60008073ffffffffffffffffffffffffffffffffffffffff168273ffffffffffffffffffffffffffffffffffffffff160361095b576040517f08c379a000000000000000000000000000000000000000000000000000000000815260040161095290612ce8565b60405180910390fd5b600360008373ffffffffffffffffffffffffffffffffffffffff1673ffffffffffffffffffffffffffffffffffffffff168152602001908152602001600020549050919050565b6109aa611344565b6109b460006113c2565b565b6000600a60009054906101000a900473ffffffffffffffffffffffffffffffffffffffff16905090565b6060600c60008381526020019081526020016000208054610a00906128d0565b80601f0160208091040260200160405190810160405280929190818152602001828054610a2c906128d0565b8015610a795780601f10610a4e57610100808354040283529160200191610a79565b820191906000526020600020905b815481529060010190602001808311610a5c57829003601f168201915b50505050509050919050565b606060018054610a94906128d0565b80601f0160208091040260200160405190810160405280929190818152602001828054610ac0906128d0565b8015610b0d5780601f10610ae257610100808354040283529160200191610b0d565b820191906000526020600020905b815481529060010190602001808311610af057829003601f168201915b5050505050905090565b610b29610b22610eb8565b8383611488565b5050565b610b3e610b38610eb8565b83610f79565b610b7d576040517f08c379a0000000000000000000000000000000000000000000000000000000008152600401610b7490612a97565b60405180910390fd5b610b89848484846115f4565b50505050565b6060610b9a82610e6d565b6000610ba4611650565b90506000815111610bc45760405180602001604052806000815250610bef565b80610bce84611667565b604051602001610bdf929190612d44565b6040516020818303038152906040525b915050919050565b610bff611344565b6000610c0b600b611735565b9050610c178382611743565b81600c60008381526020019081526020016000209081610c379190612f14565b50610c42600b611960565b505050565b6000600560008473ffffffffffffffffffffffffffffffffffffffff1673ffffffffffffffffffffffffffffffffffffffff16815260200190815260200160002060008373ffffffffffffffffffffffffffffffffffffffff1673ffffffffffffffffffffffffffffffffffffffff16815260200190815260200160002060009054906101000a900460ff16905092915050565b610ce3611344565b600073ffffffffffffffffffffffffffffffffffffffff168173ffffffffffffffffffffffffffffffffffffffff1603610d52576040517f08c379a0000000000000000000000000000000000000000000000000000000008152600401610d4990613058565b60405180910390fd5b610d5b816113c2565b50565b610d66611344565b80600c60008481526020019081526020016000209081610d869190612f14565b505050565b60007f80ac58cd000000000000000000000000000000000000000000000000000000007bffffffffffffffffffffffffffffffffffffffffffffffffffffffff1916827bffffffffffffffffffffffffffffffffffffffffffffffffffffffff19161480610e5657507f5b5e139f000000000000000000000000000000000000000000000000000000007bffffffffffffffffffffffffffffffffffffffffffffffffffffffff1916827bffffffffffffffffffffffffffffffffffffffffffffffffffffffff1916145b80610e665750610e6582611976565b5b9050919050565b610e76816119e0565b610eb5576040517f08c379a0000000000000000000000000000000000000000000000000000000008152600401610eac90612c56565b60405180910390fd5b50565b600033905090565b816004600083815260200190815260200160002060006101000a81548173ffffffffffffffffffffffffffffffffffffffff021916908373ffffffffffffffffffffffffffffffffffffffff160217905550808273ffffffffffffffffffffffffffffffffffffffff16610f3383610865565b73ffffffffffffffffffffffffffffffffffffffff167f8c5be1e5ebec7d5bd14f71427d1e84f3dd0314c0f7b2291e5b200ac8c7c3b92560405160405180910390a45050565b600080610f8583610865565b90508073ffffffffffffffffffffffffffffffffffffffff168473ffffffffffffffffffffffffffffffffffffffff161480610fc75750610fc68185610c47565b5b8061100557508373ffffffffffffffffffffffffffffffffffffffff16610fed84610565565b73ffffffffffffffffffffffffffffffffffffffff16145b91505092915050565b8273ffffffffffffffffffffffffffffffffffffffff1661102e82610865565b73ffffffffffffffffffffffffffffffffffffffff1614611084576040517f08c379a000000000000000000000000000000000000000000000000000000000815260040161107b906130ea565b60405180910390fd5b600073ffffffffffffffffffffffffffffffffffffffff168273ffffffffffffffffffffffffffffffffffffffff16036110f3576040517f08c379a00000000000000000000000000000000000000000000000000000000081526004016110ea9061317c565b60405180910390fd5b6111008383836001611a21565b8273ffffffffffffffffffffffffffffffffffffffff1661112082610865565b73ffffffffffffffffffffffffffffffffffffffff1614611176576040517f08c379a000000000000000000000000000000000000000000000000000000000815260040161116d906130ea565b60405180910390fd5b6004600082815260200190815260200160002060006101000a81549073ffffffffffffffffffffffffffffffffffffffff02191690556001600360008573ffffffffffffffffffffffffffffffffffffffff1673ffffffffffffffffffffffffffffffffffffffff168152602001908152602001600020600082825403925050819055506001600360008473ffffffffffffffffffffffffffffffffffffffff1673ffffffffffffffffffffffffffffffffffffffff16815260200190815260200160002060008282540192505081905550816002600083815260200190815260200160002060006101000a81548173ffffffffffffffffffffffffffffffffffffffff021916908373ffffffffffffffffffffffffffffffffffffffff160217905550808273ffffffffffffffffffffffffffffffffffffffff168473ffffffffffffffffffffffffffffffffffffffff167fddf252ad1be2c89b69c2b068fc378daa952ba7f163c4a11628f55a4df523b3ef60405160405180910390a46113028383836001611b7f565b505050565b60006002600083815260200190815260200160002060009054906101000a900473ffffffffffffffffffffffffffffffffffffffff169050919050565b61134c610eb8565b73ffffffffffffffffffffffffffffffffffffffff1661136a6109b6565b73ffffffffffffffffffffffffffffffffffffffff16146113c0576040517f08c379a00000000000000000000000000000000000000000000000000000000081526004016113b7906131e8565b60405180910390fd5b565b6000600a60009054906101000a900473ffffffffffffffffffffffffffffffffffffffff16905081600a60006101000a81548173ffffffffffffffffffffffffffffffffffffffff021916908373ffffffffffffffffffffffffffffffffffffffff1602179055508173ffffffffffffffffffffffffffffffffffffffff168173ffffffffffffffffffffffffffffffffffffffff167f8be0079c531659141344cd1fd0a4f28419497f9722a3daafe3b4186f6b6457e060405160405180910390a35050565b8173ffffffffffffffffffffffffffffffffffffffff168373ffffffffffffffffffffffffffffffffffffffff16036114f6576040517f08c379a00000000000000000000000000000000000000000000000000000000081526004016114ed90613254565b60405180910390fd5b80600560008573ffffffffffffffffffffffffffffffffffffffff1673ffffffffffffffffffffffffffffffffffffffff16815260200190815260200160002060008473ffffffffffffffffffffffffffffffffffffffff1673ffffffffffffffffffffffffffffffffffffffff16815260200190815260200160002060006101000a81548160ff0219169083151502179055508173ffffffffffffffffffffffffffffffffffffffff168373ffffffffffffffffffffffffffffffffffffffff167f17307eab39ab6107e8899845ad3d59bd9653f200f220920489ca2b5937696c31836040516115e79190612242565b60405180910390a3505050565b6115ff84848461100e565b61160b84848484611b85565b61164a576040517f08c379a0000000000000000000000000000000000000000000000000000000008152600401611641906132e6565b60405180910390fd5b50505050565b606060405180602001604052806000815250905090565b60606000600161167684611d0c565b01905060008167ffffffffffffffff8111156116955761169461255a565b5b6040519080825280601f01601f1916602001820160405280156116c75781602001600182028036833780820191505090505b509050600082602001820190505b60011561172a578080600190039150507f3031323334353637383961626364656600000000000000000000000000000000600a86061a8153600a858161171e5761171d613306565b5b049450600085036116d5575b819350505050919050565b600081600001549050919050565b600073ffffffffffffffffffffffffffffffffffffffff168273ffffffffffffffffffffffffffffffffffffffff16036117b2576040517f08c379a00000000000000000000000000000000000000000000000000000000081526004016117a990613381565b60405180910390fd5b6117bb816119e0565b156117fb576040517f08c379a00000000000000000000000000000000000000000000000000000000081526004016117f2906133ed565b60405180910390fd5b611809600083836001611a21565b611812816119e0565b15611852576040517f08c379a0000000000000000000000000000000000000000000000000000000008152600401611849906133ed565b60405180910390fd5b6001600360008473ffffffffffffffffffffffffffffffffffffffff1673ffffffffffffffffffffffffffffffffffffffff16815260200190815260200160002060008282540192505081905550816002600083815260200190815260200160002060006101000a81548173ffffffffffffffffffffffffffffffffffffffff021916908373ffffffffffffffffffffffffffffffffffffffff160217905550808273ffffffffffffffffffffffffffffffffffffffff16600073ffffffffffffffffffffffffffffffffffffffff167fddf252ad1be2c89b69c2b068fc378daa952ba7f163c4a11628f55a4df523b3ef60405160405180910390a461195c600083836001611b7f565b5050565b6001816000016000828254019250508190555050565b60007f01ffc9a7000000000000000000000000000000000000000000000000000000007bffffffffffffffffffffffffffffffffffffffffffffffffffffffff1916827bffffffffffffffffffffffffffffffffffffffffffffffffffffffff1916149050919050565b60008073ffffffffffffffffffffffffffffffffffffffff16611a0283611307565b73ffffffffffffffffffffffffffffffffffffffff1614159050919050565b611a2d84848484611e5f565b6001811115611a71576040517f08c379a0000000000000000000000000000000000000000000000000000000008152600401611a689061347f565b60405180910390fd5b6000829050600073ffffffffffffffffffffffffffffffffffffffff168573ffffffffffffffffffffffffffffffffffffffff1603611ab857611ab381611e65565b611af7565b8373ffffffffffffffffffffffffffffffffffffffff168573ffffffffffffffffffffffffffffffffffffffff1614611af657611af58582611eae565b5b5b600073ffffffffffffffffffffffffffffffffffffffff168473ffffffffffffffffffffffffffffffffffffffff1603611b3957611b348161201b565b611b78565b8473ffffffffffffffffffffffffffffffffffffffff168473ffffffffffffffffffffffffffffffffffffffff1614611b7757611b7684826120ec565b5b5b5050505050565b50505050565b6000611ba68473ffffffffffffffffffffffffffffffffffffffff1661216b565b15611cff578373ffffffffffffffffffffffffffffffffffffffff1663150b7a02611bcf610eb8565b8786866040518563ffffffff1660e01b8152600401611bf194939291906134f4565b6020604051808303816000875af1925050508015611c2d57506040513d601f19601f82011682018060405250810190611c2a9190613555565b60015b611caf573d8060008114611c5d576040519150601f19603f3d011682016040523d82523d6000602084013e611c62565b606091505b506000815103611ca7576040517f08c379a0000000000000000000000000000000000000000000000000000000008152600401611c9e906132e6565b60405180910390fd5b805181602001fd5b63150b7a0260e01b7bffffffffffffffffffffffffffffffffffffffffffffffffffffffff1916817bffffffffffffffffffffffffffffffffffffffffffffffffffffffff191614915050611d04565b600190505b949350505050565b600080600090507a184f03e93ff9f4daa797ed6e38ed64bf6a1f0100000000000000008310611d6a577a184f03e93ff9f4daa797ed6e38ed64bf6a1f0100000000000000008381611d6057611d5f613306565b5b0492506040810190505b6d04ee2d6d415b85acef81000000008310611da7576d04ee2d6d415b85acef81000000008381611d9d57611d9c613306565b5b0492506020810190505b662386f26fc100008310611dd657662386f26fc100008381611dcc57611dcb613306565b5b0492506010810190505b6305f5e1008310611dff576305f5e1008381611df557611df4613306565b5b0492506008810190505b6127108310611e24576127108381611e1a57611e19613306565b5b0492506004810190505b60648310611e475760648381611e3d57611e3c613306565b5b0492506002810190505b600a8310611e56576001810190505b80915050919050565b50505050565b6008805490506009600083815260200190815260200160002081905550600881908060018154018082558091505060019003906000526020600020016000909190919091505550565b60006001611ebb846108eb565b611ec591906135b1565b9050600060076000848152602001908152602001600020549050818114611faa576000600660008673ffffffffffffffffffffffffffffffffffffffff1673ffffffffffffffffffffffffffffffffffffffff168152602001908152602001600020600084815260200190815260200160002054905080600660008773ffffffffffffffffffffffffffffffffffffffff1673ffffffffffffffffffffffffffffffffffffffff168152602001908152602001600020600084815260200190815260200160002081905550816007600083815260200190815260200160002081905550505b6007600084815260200190815260200160002060009055600660008573ffffffffffffffffffffffffffffffffffffffff1673ffffffffffffffffffffffffffffffffffffffff16815260200190815260200160002060008381526020019081526020016000206000905550505050565b6000600160088054905061202f91906135b1565b905060006009600084815260200190815260200160002054905060006008838154811061205f5761205e612bdb565b5b90600052602060002001549050806008838154811061208157612080612bdb565b5b9060005260206000200181905550816009600083815260200190815260200160002081905550600960008581526020019081526020016000206000905560088054806120d0576120cf6135e5565b5b6001900381819060005260206000200160009055905550505050565b60006120f7836108eb565b905081600660008573ffffffffffffffffffffffffffffffffffffffff1673ffffffffffffffffffffffffffffffffffffffff168152602001908152602001600020600083815260200190815260200160002081905550806007600084815260200190815260200160002081905550505050565b6000808273ffffffffffffffffffffffffffffffffffffffff163b119050919050565b6000604051905090565b600080fd5b600080fd5b60007fffffffff0000000000000000000000000000000000000000000000000000000082169050919050565b6121d7816121a2565b81146121e257600080fd5b50565b6000813590506121f4816121ce565b92915050565b6000602082840312156122105761220f612198565b5b600061221e848285016121e5565b91505092915050565b60008115159050919050565b61223c81612227565b82525050565b60006020820190506122576000830184612233565b92915050565b600081519050919050565b600082825260208201905092915050565b60005b8381101561229757808201518184015260208101905061227c565b60008484015250505050565b6000601f19601f8301169050919050565b60006122bf8261225d565b6122c98185612268565b93506122d9818560208601612279565b6122e2816122a3565b840191505092915050565b6000602082019050818103600083015261230781846122b4565b905092915050565b6000819050919050565b6123228161230f565b811461232d57600080fd5b50565b60008135905061233f81612319565b92915050565b60006020828403121561235b5761235a612198565b5b600061236984828501612330565b91505092915050565b600073ffffffffffffffffffffffffffffffffffffffff82169050919050565b600061239d82612372565b9050919050565b6123ad81612392565b82525050565b60006020820190506123c860008301846123a4565b92915050565b6123d781612392565b81146123e257600080fd5b50565b6000813590506123f4816123ce565b92915050565b6000806040838503121561241157612410612198565b5b600061241f858286016123e5565b925050602061243085828601612330565b9150509250929050565b6124438161230f565b82525050565b600060208201905061245e600083018461243a565b92915050565b60008060006060848603121561247d5761247c612198565b5b600061248b868287016123e5565b935050602061249c868287016123e5565b92505060406124ad86828701612330565b9150509250925092565b6000602082840312156124cd576124cc612198565b5b60006124db848285016123e5565b91505092915050565b6124ed81612227565b81146124f857600080fd5b50565b60008135905061250a816124e4565b92915050565b6000806040838503121561252757612526612198565b5b6000612535858286016123e5565b9250506020612546858286016124fb565b9150509250929050565b600080fd5b600080fd5b7f4e487b7100000000000000000000000000000000000000000000000000000000600052604160045260246000fd5b612592826122a3565b810181811067ffffffffffffffff821117156125b1576125b061255a565b5b80604052505050565b60006125c461218e565b90506125d08282612589565b919050565b600067ffffffffffffffff8211156125f0576125ef61255a565b5b6125f9826122a3565b9050602081019050919050565b82818337600083830152505050565b6000612628612623846125d5565b6125ba565b90508281526020810184848401111561264457612643612555565b5b61264f848285612606565b509392505050565b600082601f83011261266c5761266b612550565b5b813561267c848260208601612615565b91505092915050565b6000806000806080858703121561269f5761269e612198565b5b60006126ad878288016123e5565b94505060206126be878288016123e5565b93505060406126cf87828801612330565b925050606085013567ffffffffffffffff8111156126f0576126ef61219d565b5b6126fc87828801612657565b91505092959194509250565b600067ffffffffffffffff8211156127235761272261255a565b5b61272c826122a3565b9050602081019050919050565b600061274c61274784612708565b6125ba565b90508281526020810184848401111561276857612767612555565b5b612773848285612606565b509392505050565b600082601f8301126127905761278f612550565b5b81356127a0848260208601612739565b91505092915050565b600080604083850312156127c0576127bf612198565b5b60006127ce858286016123e5565b925050602083013567ffffffffffffffff8111156127ef576127ee61219d565b5b6127fb8582860161277b565b9150509250929050565b6000806040838503121561281c5761281b612198565b5b600061282a858286016123e5565b925050602061283b858286016123e5565b9150509250929050565b6000806040838503121561285c5761285b612198565b5b600061286a85828601612330565b925050602083013567ffffffffffffffff81111561288b5761288a61219d565b5b6128978582860161277b565b9150509250929050565b7f4e487b7100000000000000000000000000000000000000000000000000000000600052602260045260246000fd5b600060028204905060018216806128e857607f821691505b6020821081036128fb576128fa6128a1565b5b50919050565b7f4552433732313a20617070726f76616c20746f2063757272656e74206f776e6560008201527f7200000000000000000000000000000000000000000000000000000000000000602082015250565b600061295d602183612268565b915061296882612901565b604082019050919050565b6000602082019050818103600083015261298c81612950565b9050919050565b7f4552433732313a20617070726f76652063616c6c6572206973206e6f7420746f60008201527f6b656e206f776e6572206f7220617070726f76656420666f7220616c6c000000602082015250565b60006129ef603d83612268565b91506129fa82612993565b604082019050919050565b60006020820190508181036000830152612a1e816129e2565b9050919050565b7f4552433732313a2063616c6c6572206973206e6f7420746f6b656e206f776e6560008201527f72206f7220617070726f76656400000000000000000000000000000000000000602082015250565b6000612a81602d83612268565b9150612a8c82612a25565b604082019050919050565b60006020820190508181036000830152612ab081612a74565b9050919050565b7f455243373231456e756d657261626c653a206f776e657220696e646578206f7560008201527f74206f6620626f756e6473000000000000000000000000000000000000000000602082015250565b6000612b13602b83612268565b9150612b1e82612ab7565b604082019050919050565b60006020820190508181036000830152612b4281612b06565b9050919050565b7f455243373231456e756d657261626c653a20676c6f62616c20696e646578206f60008201527f7574206f6620626f756e64730000000000000000000000000000000000000000602082015250565b6000612ba5602c83612268565b9150612bb082612b49565b604082019050919050565b60006020820190508181036000830152612bd481612b98565b9050919050565b7f4e487b7100000000000000000000000000000000000000000000000000000000600052603260045260246000fd5b7f4552433732313a20696e76616c696420746f6b656e2049440000000000000000600082015250565b6000612c40601883612268565b9150612c4b82612c0a565b602082019050919050565b60006020820190508181036000830152612c6f81612c33565b9050919050565b7f4552433732313a2061646472657373207a65726f206973206e6f74206120766160008201527f6c6964206f776e65720000000000000000000000000000000000000000000000602082015250565b6000612cd2602983612268565b9150612cdd82612c76565b604082019050919050565b60006020820190508181036000830152612d0181612cc5565b9050919050565b600081905092915050565b6000612d1e8261225d565b612d288185612d08565b9350612d38818560208601612279565b80840191505092915050565b6000612d508285612d13565b9150612d5c8284612d13565b91508190509392505050565b60008190508160005260206000209050919050565b60006020601f8301049050919050565b600082821b905092915050565b600060088302612dca7fffffffffffffffffffffffffffffffffffffffffffffffffffffffffffffffff82612d8d565b612dd48683612d8d565b95508019841693508086168417925050509392505050565b6000819050919050565b6000612e11612e0c612e078461230f565b612dec565b61230f565b9050919050565b6000819050919050565b612e2b83612df6565b612e3f612e3782612e18565b848454612d9a565b825550505050565b600090565b612e54612e47565b612e5f818484612e22565b505050565b5b81811015612e8357612e78600082612e4c565b600181019050612e65565b5050565b601f821115612ec857612e9981612d68565b612ea284612d7d565b81016020851015612eb1578190505b612ec5612ebd85612d7d565b830182612e64565b50505b505050565b600082821c905092915050565b6000612eeb60001984600802612ecd565b1980831691505092915050565b6000612f048383612eda565b9150826002028217905092915050565b612f1d8261225d565b67ffffffffffffffff811115612f3657612f3561255a565b5b612f4082546128d0565b612f4b828285612e87565b600060209050601f831160018114612f7e5760008415612f6c578287015190505b612f768582612ef8565b865550612fde565b601f198416612f8c86612d68565b60005b82811015612fb457848901518255600182019150602085019450602081019050612f8f565b86831015612fd15784890151612fcd601f891682612eda565b8355505b6001600288020188555050505b505050505050565b7f4f776e61626c653a206e6577206f776e657220697320746865207a65726f206160008201527f6464726573730000000000000000000000000000000000000000000000000000602082015250565b6000613042602683612268565b915061304d82612fe6565b604082019050919050565b6000602082019050818103600083015261307181613035565b9050919050565b7f4552433732313a207472616e736665722066726f6d20696e636f72726563742060008201527f6f776e6572000000000000000000000000000000000000000000000000000000602082015250565b60006130d4602583612268565b91506130df82613078565b604082019050919050565b60006020820190508181036000830152613103816130c7565b9050919050565b7f4552433732313a207472616e7366657220746f20746865207a65726f2061646460008201527f7265737300000000000000000000000000000000000000000000000000000000602082015250565b6000613166602483612268565b91506131718261310a565b604082019050919050565b6000602082019050818103600083015261319581613159565b9050919050565b7f4f776e61626c653a2063616c6c6572206973206e6f7420746865206f776e6572600082015250565b60006131d2602083612268565b91506131dd8261319c565b602082019050919050565b60006020820190508181036000830152613201816131c5565b9050919050565b7f4552433732313a20617070726f766520746f2063616c6c657200000000000000600082015250565b600061323e601983612268565b915061324982613208565b602082019050919050565b6000602082019050818103600083015261326d81613231565b9050919050565b7f4552433732313a207472616e7366657220746f206e6f6e20455243373231526560008201527f63656976657220696d706c656d656e7465720000000000000000000000000000602082015250565b60006132d0603283612268565b91506132db82613274565b604082019050919050565b600060208201905081810360008301526132ff816132c3565b9050919050565b7f4e487b7100000000000000000000000000000000000000000000000000000000600052601260045260246000fd5b7f4552433732313a206d696e7420746f20746865207a65726f2061646472657373600082015250565b600061336b602083612268565b915061337682613335565b602082019050919050565b6000602082019050818103600083015261339a8161335e565b9050919050565b7f4552433732313a20746f6b656e20616c7265616479206d696e74656400000000600082015250565b60006133d7601c83612268565b91506133e2826133a1565b602082019050919050565b60006020820190508181036000830152613406816133ca565b9050919050565b7f455243373231456e756d657261626c653a20636f6e736563757469766520747260008201527f616e7366657273206e6f7420737570706f727465640000000000000000000000602082015250565b6000613469603583612268565b91506134748261340d565b604082019050919050565b600060208201905081810360008301526134988161345c565b9050919050565b600081519050919050565b600082825260208201905092915050565b60006134c68261349f565b6134d081856134aa565b93506134e0818560208601612279565b6134e9816122a3565b840191505092915050565b600060808201905061350960008301876123a4565b61351660208301866123a4565b613523604083018561243a565b818103606083015261353581846134bb565b905095945050505050565b60008151905061354f816121ce565b92915050565b60006020828403121561356b5761356a612198565b5b600061357984828501613540565b91505092915050565b7f4e487b7100000000000000000000000000000000000000000000000000000000600052601160045260246000fd5b60006135bc8261230f565b91506135c78361230f565b92508282039050818111156135df576135de613582565b5b92915050565b7f4e487b7100000000000000000000000000000000000000000000000000000000600052603160045260246000fdfea2646970667358221220dfde915af6f4f8886defef4c5489a547c3c3b9ec6a33fe3bbd5b296ab2130ccf64736f6c63430008120033",
  "linkReferences": {},
  "deployedLinkReferences": {}
}